{
  "_format": "hh3-artifact-1",
  "contractName": "SPARKPayrollVault",
  "sourceName": "contracts/hedera/SPARKPayrollVault.sol",
  "abi": [
    {
      "inputs": [
        {
          "internalType": "uint256",
          "name": "_defaultAmount",
          "type": "uint256"
        },
        {
          "internalType": "uint256",
          "name": "_defaultInterval",
          "type": "uint256"
        }
      ],
      "stateMutability": "nonpayable",
      "type": "constructor"
    },
    {
      "inputs": [
        {
          "internalType": "address",
          "name": "owner",
          "type": "address"
        }
      ],
      "name": "OwnableInvalidOwner",
      "type": "error"
    },
    {
      "inputs": [
        {
          "internalType": "address",
          "name": "account",
          "type": "address"
        }
      ],
      "name": "OwnableUnauthorizedAccount",
      "type": "error"
    },
    {
      "inputs": [],
      "name": "ReentrancyGuardReentrantCall",
      "type": "error"
    },
    {
      "anonymous": false,
      "inputs": [
        {
          "indexed": true,
          "internalType": "uint256",
          "name": "agentIdx",
          "type": "uint256"
        },
        {
          "indexed": true,
          "internalType": "address",
          "name": "agent",
          "type": "address"
        },
        {
          "indexed": false,
          "internalType": "string",
          "name": "name",
          "type": "string"
        },
        {
          "indexed": false,
          "internalType": "uint256",
          "name": "amount",
          "type": "uint256"
        },
        {
          "indexed": false,
          "internalType": "uint256",
          "name": "interval",
          "type": "uint256"
        }
      ],
      "name": "AgentAdded",
      "type": "event"
    },
    {
      "anonymous": false,
      "inputs": [
        {
          "indexed": true,
          "internalType": "uint256",
          "name": "agentIdx",
          "type": "uint256"
        },
        {
          "indexed": true,
          "internalType": "address",
          "name": "agent",
          "type": "address"
        }
      ],
      "name": "AgentRemoved",
      "type": "event"
    },
    {
      "anonymous": false,
      "inputs": [
        {
          "indexed": true,
          "internalType": "uint256",
          "name": "agentIdx",
          "type": "uint256"
        },
        {
          "indexed": false,
          "internalType": "uint256",
          "name": "newAmount",
          "type": "uint256"
        },
        {
          "indexed": false,
          "internalType": "uint256",
          "name": "newInterval",
          "type": "uint256"
        }
      ],
      "name": "AgentUpdated",
      "type": "event"
    },
    {
      "anonymous": false,
      "inputs": [
        {
          "indexed": false,
          "internalType": "uint256",
          "name": "newAmount",
          "type": "uint256"
        },
        {
          "indexed": false,
          "internalType": "uint256",
          "name": "newInterval",
          "type": "uint256"
        }
      ],
      "name": "DefaultsUpdated",
      "type": "event"
    },
    {
      "anonymous": false,
      "inputs": [
        {
          "indexed": true,
          "internalType": "uint256",
          "name": "agentIdx",
          "type": "uint256"
        },
        {
          "indexed": false,
          "internalType": "uint256",
          "name": "required",
          "type": "uint256"
        },
        {
          "indexed": false,
          "internalType": "uint256",
          "name": "available",
          "type": "uint256"
        }
      ],
      "name": "InsufficientBalance",
      "type": "event"
    },
    {
      "anonymous": false,
      "inputs": [
        {
          "indexed": true,
          "internalType": "address",
          "name": "previousOwner",
          "type": "address"
        },
        {
          "indexed": true,
          "internalType": "address",
          "name": "newOwner",
          "type": "address"
        }
      ],
      "name": "OwnershipTransferred",
      "type": "event"
    },
    {
      "anonymous": false,
      "inputs": [
        {
          "indexed": true,
          "internalType": "address",
          "name": "token",
          "type": "address"
        }
      ],
      "name": "PaymentTokenSet",
      "type": "event"
    },
    {
      "anonymous": false,
      "inputs": [
        {
          "indexed": true,
          "internalType": "uint256",
          "name": "agentIdx",
          "type": "uint256"
        },
        {
          "indexed": true,
          "internalType": "address",
          "name": "agent",
          "type": "address"
        },
        {
          "indexed": false,
          "internalType": "uint256",
          "name": "amount",
          "type": "uint256"
        },
        {
          "indexed": false,
          "internalType": "uint256",
          "name": "paymentNumber",
          "type": "uint256"
        }
      ],
      "name": "PayrollExecuted",
      "type": "event"
    },
    {
      "anonymous": false,
      "inputs": [
        {
          "indexed": true,
          "internalType": "uint256",
          "name": "agentIdx",
          "type": "uint256"
        },
        {
          "indexed": false,
          "internalType": "string",
          "name": "reason",
          "type": "string"
        }
      ],
      "name": "PayrollFailed",
      "type": "event"
    },
    {
      "anonymous": false,
      "inputs": [
        {
          "indexed": true,
          "internalType": "uint256",
          "name": "agentIdx",
          "type": "uint256"
        },
        {
          "indexed": true,
          "internalType": "address",
          "name": "scheduleAddress",
          "type": "address"
        }
      ],
      "name": "ScheduleCancelled",
      "type": "event"
    },
    {
      "anonymous": false,
      "inputs": [
        {
          "indexed": true,
          "internalType": "uint256",
          "name": "agentIdx",
          "type": "uint256"
        },
        {
          "indexed": false,
          "internalType": "uint256",
          "name": "requestedTime",
          "type": "uint256"
        }
      ],
      "name": "ScheduleCapacityUnavailable",
      "type": "event"
    },
    {
      "anonymous": false,
      "inputs": [
        {
          "indexed": true,
          "internalType": "uint256",
          "name": "agentIdx",
          "type": "uint256"
        },
        {
          "indexed": true,
          "internalType": "address",
          "name": "scheduleAddress",
          "type": "address"
        },
        {
          "indexed": false,
          "internalType": "uint256",
          "name": "scheduledTime",
          "type": "uint256"
        }
      ],
      "name": "ScheduleCreated",
      "type": "event"
    },
    {
      "anonymous": false,
      "inputs": [
        {
          "indexed": true,
          "internalType": "address",
          "name": "token",
          "type": "address"
        }
      ],
      "name": "TokenAssociated",
      "type": "event"
    },
    {
      "anonymous": false,
      "inputs": [
        {
          "indexed": true,
          "internalType": "address",
          "name": "funder",
          "type": "address"
        },
        {
          "indexed": false,
          "internalType": "uint256",
          "name": "amount",
          "type": "uint256"
        },
        {
          "indexed": false,
          "internalType": "uint256",
          "name": "newBalance",
          "type": "uint256"
        }
      ],
      "name": "VaultFunded",
      "type": "event"
    },
    {
      "anonymous": false,
      "inputs": [
        {
          "indexed": true,
          "internalType": "address",
          "name": "funder",
          "type": "address"
        },
        {
          "indexed": true,
          "internalType": "address",
          "name": "token",
          "type": "address"
        },
        {
          "indexed": false,
          "internalType": "uint256",
          "name": "amount",
          "type": "uint256"
        },
        {
          "indexed": false,
          "internalType": "uint256",
          "name": "newBalance",
          "type": "uint256"
        }
      ],
      "name": "VaultFundedToken",
      "type": "event"
    },
    {
      "anonymous": false,
      "inputs": [
        {
          "indexed": true,
          "internalType": "address",
          "name": "to",
          "type": "address"
        },
        {
          "indexed": false,
          "internalType": "uint256",
          "name": "amount",
          "type": "uint256"
        }
      ],
      "name": "VaultWithdrawn",
      "type": "event"
    },
    {
      "inputs": [],
      "name": "MAX_AGENTS",
      "outputs": [
        {
          "internalType": "uint256",
          "name": "",
          "type": "uint256"
        }
      ],
      "stateMutability": "view",
      "type": "function"
    },
    {
      "inputs": [],
      "name": "MIN_INTERVAL",
      "outputs": [
        {
          "internalType": "uint256",
          "name": "",
          "type": "uint256"
        }
      ],
      "stateMutability": "view",
      "type": "function"
    },
    {
      "inputs": [
        {
          "internalType": "address",
          "name": "schedAddr",
          "type": "address"
        }
      ],
      "name": "_tryDeleteSchedule",
      "outputs": [],
      "stateMutability": "nonpayable",
      "type": "function"
    },
    {
      "inputs": [
        {
          "internalType": "address payable",
          "name": "agent",
          "type": "address"
        },
        {
          "internalType": "string",
          "name": "name",
          "type": "string"
        },
        {
          "internalType": "uint256",
          "name": "amountPerPeriod",
          "type": "uint256"
        },
        {
          "internalType": "uint256",
          "name": "intervalSeconds",
          "type": "uint256"
        }
      ],
      "name": "addAgent",
      "outputs": [
        {
          "internalType": "uint256",
          "name": "idx",
          "type": "uint256"
        }
      ],
      "stateMutability": "nonpayable",
      "type": "function"
    },
    {
      "inputs": [
        {
          "internalType": "address",
          "name": "",
          "type": "address"
        }
      ],
      "name": "agentIndex",
      "outputs": [
        {
          "internalType": "uint256",
          "name": "",
          "type": "uint256"
        }
      ],
      "stateMutability": "view",
      "type": "function"
    },
    {
      "inputs": [
        {
          "internalType": "uint256",
          "name": "",
          "type": "uint256"
        }
      ],
      "name": "agents",
      "outputs": [
        {
          "internalType": "address payable",
          "name": "agent",
          "type": "address"
        },
        {
          "internalType": "uint256",
          "name": "amountPerPeriod",
          "type": "uint256"
        },
        {
          "internalType": "uint256",
          "name": "intervalSeconds",
          "type": "uint256"
        },
        {
          "internalType": "uint256",
          "name": "nextPaymentTime",
          "type": "uint256"
        },
        {
          "internalType": "address",
          "name": "currentScheduleAddr",
          "type": "address"
        },
        {
          "internalType": "enum SPARKPayrollVault.ScheduleStatus",
          "name": "status",
          "type": "uint8"
        },
        {
          "internalType": "uint256",
          "name": "totalPaid",
          "type": "uint256"
        },
        {
          "internalType": "uint256",
          "name": "paymentCount",
          "type": "uint256"
        },
        {
          "internalType": "bool",
          "name": "active",
          "type": "bool"
        },
        {
          "internalType": "string",
          "name": "agentName",
          "type": "string"
        }
      ],
      "stateMutability": "view",
      "type": "function"
    },
    {
      "inputs": [
        {
          "internalType": "address",
          "name": "token",
          "type": "address"
        }
      ],
      "name": "associateToken",
      "outputs": [],
      "stateMutability": "nonpayable",
      "type": "function"
    },
    {
      "inputs": [
        {
          "internalType": "uint256",
          "name": "agentIdx",
          "type": "uint256"
        }
      ],
      "name": "cancelPayroll",
      "outputs": [],
      "stateMutability": "nonpayable",
      "type": "function"
    },
    {
      "inputs": [],
      "name": "defaultAmount",
      "outputs": [
        {
          "internalType": "uint256",
          "name": "",
          "type": "uint256"
        }
      ],
      "stateMutability": "view",
      "type": "function"
    },
    {
      "inputs": [],
      "name": "defaultInterval",
      "outputs": [
        {
          "internalType": "uint256",
          "name": "",
          "type": "uint256"
        }
      ],
      "stateMutability": "view",
      "type": "function"
    },
    {
      "inputs": [
        {
          "internalType": "uint256",
          "name": "agentIdx",
          "type": "uint256"
        }
      ],
      "name": "executePayroll",
      "outputs": [],
      "stateMutability": "nonpayable",
      "type": "function"
    },
    {
      "inputs": [],
      "name": "fundVault",
      "outputs": [],
      "stateMutability": "payable",
      "type": "function"
    },
    {
      "inputs": [
        {
          "internalType": "uint256",
          "name": "amount",
          "type": "uint256"
        }
      ],
      "name": "fundVaultToken",
      "outputs": [],
      "stateMutability": "nonpayable",
      "type": "function"
    },
    {
      "inputs": [
        {
          "internalType": "uint256",
          "name": "idx",
          "type": "uint256"
        }
      ],
      "name": "getAgent",
      "outputs": [
        {
          "components": [
            {
              "internalType": "address payable",
              "name": "agent",
              "type": "address"
            },
            {
              "internalType": "uint256",
              "name": "amountPerPeriod",
              "type": "uint256"
            },
            {
              "internalType": "uint256",
              "name": "intervalSeconds",
              "type": "uint256"
            },
            {
              "internalType": "uint256",
              "name": "nextPaymentTime",
              "type": "uint256"
            },
            {
              "internalType": "address",
              "name": "currentScheduleAddr",
              "type": "address"
            },
            {
              "internalType": "enum SPARKPayrollVault.ScheduleStatus",
              "name": "status",
              "type": "uint8"
            },
            {
              "internalType": "uint256",
              "name": "totalPaid",
              "type": "uint256"
            },
            {
              "internalType": "uint256",
              "name": "paymentCount",
              "type": "uint256"
            },
            {
              "internalType": "bool",
              "name": "active",
              "type": "bool"
            },
            {
              "internalType": "string",
              "name": "agentName",
              "type": "string"
            }
          ],
          "internalType": "struct SPARKPayrollVault.AgentPayroll",
          "name": "",
          "type": "tuple"
        }
      ],
      "stateMutability": "view",
      "type": "function"
    },
    {
      "inputs": [],
      "name": "getAgentCount",
      "outputs": [
        {
          "internalType": "uint256",
          "name": "",
          "type": "uint256"
        }
      ],
      "stateMutability": "view",
      "type": "function"
    },
    {
      "inputs": [],
      "name": "getAllAgents",
      "outputs": [
        {
          "components": [
            {
              "internalType": "address payable",
              "name": "agent",
              "type": "address"
            },
            {
              "internalType": "uint256",
              "name": "amountPerPeriod",
              "type": "uint256"
            },
            {
              "internalType": "uint256",
              "name": "intervalSeconds",
              "type": "uint256"
            },
            {
              "internalType": "uint256",
              "name": "nextPaymentTime",
              "type": "uint256"
            },
            {
              "internalType": "address",
              "name": "currentScheduleAddr",
              "type": "address"
            },
            {
              "internalType": "enum SPARKPayrollVault.ScheduleStatus",
              "name": "status",
              "type": "uint8"
            },
            {
              "internalType": "uint256",
              "name": "totalPaid",
              "type": "uint256"
            },
            {
              "internalType": "uint256",
              "name": "paymentCount",
              "type": "uint256"
            },
            {
              "internalType": "bool",
              "name": "active",
              "type": "bool"
            },
            {
              "internalType": "string",
              "name": "agentName",
              "type": "string"
            }
          ],
          "internalType": "struct SPARKPayrollVault.AgentPayroll[]",
          "name": "",
          "type": "tuple[]"
        }
      ],
      "stateMutability": "view",
      "type": "function"
    },
    {
      "inputs": [
        {
          "internalType": "uint256",
          "name": "count",
          "type": "uint256"
        }
      ],
      "name": "getRecentHistory",
      "outputs": [
        {
          "components": [
            {
              "internalType": "uint256",
              "name": "agentIdx",
              "type": "uint256"
            },
            {
              "internalType": "address",
              "name": "scheduleAddress",
              "type": "address"
            },
            {
              "internalType": "uint256",
              "name": "scheduledTime",
              "type": "uint256"
            },
            {
              "internalType": "uint256",
              "name": "createdAt",
              "type": "uint256"
            },
            {
              "internalType": "uint256",
              "name": "executedAt",
              "type": "uint256"
            },
            {
              "internalType": "enum SPARKPayrollVault.ScheduleStatus",
              "name": "status",
              "type": "uint8"
            }
          ],
          "internalType": "struct SPARKPayrollVault.ScheduleRecord[]",
          "name": "",
          "type": "tuple[]"
        }
      ],
      "stateMutability": "view",
      "type": "function"
    },
    {
      "inputs": [],
      "name": "getScheduleHistoryCount",
      "outputs": [
        {
          "internalType": "uint256",
          "name": "",
          "type": "uint256"
        }
      ],
      "stateMutability": "view",
      "type": "function"
    },
    {
      "inputs": [
        {
          "internalType": "uint256",
          "name": "idx",
          "type": "uint256"
        }
      ],
      "name": "getScheduleRecord",
      "outputs": [
        {
          "components": [
            {
              "internalType": "uint256",
              "name": "agentIdx",
              "type": "uint256"
            },
            {
              "internalType": "address",
              "name": "scheduleAddress",
              "type": "address"
            },
            {
              "internalType": "uint256",
              "name": "scheduledTime",
              "type": "uint256"
            },
            {
              "internalType": "uint256",
              "name": "createdAt",
              "type": "uint256"
            },
            {
              "internalType": "uint256",
              "name": "executedAt",
              "type": "uint256"
            },
            {
              "internalType": "enum SPARKPayrollVault.ScheduleStatus",
              "name": "status",
              "type": "uint8"
            }
          ],
          "internalType": "struct SPARKPayrollVault.ScheduleRecord",
          "name": "",
          "type": "tuple"
        }
      ],
      "stateMutability": "view",
      "type": "function"
    },
    {
      "inputs": [],
      "name": "getTokenBalance",
      "outputs": [
        {
          "internalType": "uint256",
          "name": "",
          "type": "uint256"
        }
      ],
      "stateMutability": "view",
      "type": "function"
    },
    {
      "inputs": [],
      "name": "getVaultBalance",
      "outputs": [
        {
          "internalType": "uint256",
          "name": "",
          "type": "uint256"
        }
      ],
      "stateMutability": "view",
      "type": "function"
    },
    {
      "inputs": [
        {
          "internalType": "address",
          "name": "",
          "type": "address"
        }
      ],
      "name": "isAgent",
      "outputs": [
        {
          "internalType": "bool",
          "name": "",
          "type": "bool"
        }
      ],
      "stateMutability": "view",
      "type": "function"
    },
    {
      "inputs": [],
      "name": "owner",
      "outputs": [
        {
          "internalType": "address",
          "name": "",
          "type": "address"
        }
      ],
      "stateMutability": "view",
      "type": "function"
    },
    {
      "inputs": [],
      "name": "paymentToken",
      "outputs": [
        {
          "internalType": "address",
          "name": "",
          "type": "address"
        }
      ],
      "stateMutability": "view",
      "type": "function"
    },
    {
      "inputs": [
        {
          "internalType": "uint256",
          "name": "idx",
          "type": "uint256"
        }
      ],
      "name": "removeAgent",
      "outputs": [],
      "stateMutability": "nonpayable",
      "type": "function"
    },
    {
      "inputs": [],
      "name": "renounceOwnership",
      "outputs": [],
      "stateMutability": "nonpayable",
      "type": "function"
    },
    {
      "inputs": [
        {
          "internalType": "uint256",
          "name": "agentIdx",
          "type": "uint256"
        }
      ],
      "name": "retryPayroll",
      "outputs": [],
      "stateMutability": "nonpayable",
      "type": "function"
    },
    {
      "inputs": [
        {
          "internalType": "uint256",
          "name": "",
          "type": "uint256"
        }
      ],
      "name": "scheduleHistory",
      "outputs": [
        {
          "internalType": "uint256",
          "name": "agentIdx",
          "type": "uint256"
        },
        {
          "internalType": "address",
          "name": "scheduleAddress",
          "type": "address"
        },
        {
          "internalType": "uint256",
          "name": "scheduledTime",
          "type": "uint256"
        },
        {
          "internalType": "uint256",
          "name": "createdAt",
          "type": "uint256"
        },
        {
          "internalType": "uint256",
          "name": "executedAt",
          "type": "uint256"
        },
        {
          "internalType": "enum SPARKPayrollVault.ScheduleStatus",
          "name": "status",
          "type": "uint8"
        }
      ],
      "stateMutability": "view",
      "type": "function"
    },
    {
      "inputs": [
        {
          "internalType": "address",
          "name": "",
          "type": "address"
        }
      ],
      "name": "scheduleToHistoryIndex",
      "outputs": [
        {
          "internalType": "uint256",
          "name": "",
          "type": "uint256"
        }
      ],
      "stateMutability": "view",
      "type": "function"
    },
    {
      "inputs": [],
      "name": "scheduledCallGasLimit",
      "outputs": [
        {
          "internalType": "uint256",
          "name": "",
          "type": "uint256"
        }
      ],
      "stateMutability": "view",
      "type": "function"
    },
    {
      "inputs": [
        {
          "internalType": "uint256",
          "name": "_amount",
          "type": "uint256"
        }
      ],
      "name": "setDefaultAmount",
      "outputs": [],
      "stateMutability": "nonpayable",
      "type": "function"
    },
    {
      "inputs": [
        {
          "internalType": "uint256",
          "name": "_interval",
          "type": "uint256"
        }
      ],
      "name": "setDefaultInterval",
      "outputs": [],
      "stateMutability": "nonpayable",
      "type": "function"
    },
    {
      "inputs": [
        {
          "internalType": "uint256",
          "name": "_gasLimit",
          "type": "uint256"
        }
      ],
      "name": "setGasLimit",
      "outputs": [],
      "stateMutability": "nonpayable",
      "type": "function"
    },
    {
      "inputs": [
        {
          "internalType": "address",
          "name": "token",
          "type": "address"
        }
      ],
      "name": "setPaymentToken",
      "outputs": [],
      "stateMutability": "nonpayable",
      "type": "function"
    },
    {
      "inputs": [
        {
          "internalType": "uint256",
          "name": "agentIdx",
          "type": "uint256"
        }
      ],
      "name": "startPayroll",
      "outputs": [],
      "stateMutability": "nonpayable",
      "type": "function"
    },
    {
      "inputs": [
        {
          "internalType": "address",
          "name": "newOwner",
          "type": "address"
        }
      ],
      "name": "transferOwnership",
      "outputs": [],
      "stateMutability": "nonpayable",
      "type": "function"
    },
    {
      "inputs": [
        {
          "internalType": "uint256",
          "name": "idx",
          "type": "uint256"
        },
        {
          "internalType": "uint256",
          "name": "newAmount",
          "type": "uint256"
        },
        {
          "internalType": "uint256",
          "name": "newInterval",
          "type": "uint256"
        }
      ],
      "name": "updateAgent",
      "outputs": [],
      "stateMutability": "nonpayable",
      "type": "function"
    },
    {
      "inputs": [
        {
          "internalType": "uint256",
          "name": "amount",
          "type": "uint256"
        }
      ],
      "name": "withdrawExcess",
      "outputs": [],
      "stateMutability": "nonpayable",
      "type": "function"
    },
    {
      "stateMutability": "payable",
      "type": "receive"
    }
  ],
  "bytecode": "0x60806040526298968060025534801562000017575f80fd5b5060405162003721380380620037218339810160408190526200003a9162000166565b33806200006157604051631e4fbdf760e01b81525f60048201526024015b60405180910390fd5b6200006c8162000117565b506001805581620000c05760405162461bcd60e51b815260206004820152601360248201527f5a65726f2064656661756c7420616d6f756e7400000000000000000000000000604482015260640162000058565b600a811015620001085760405162461bcd60e51b8152602060048201526012602482015271125b9d195c9d985b081d1bdbc81cda1bdc9d60721b604482015260640162000058565b60039190915560045562000189565b5f80546001600160a01b038381166001600160a01b0319831681178455604051919092169283917f8be0079c531659141344cd1fd0a4f28419497f9722a3daafe3b4186f6b6457e09190a35050565b5f806040838503121562000178575f80fd5b505080516020909101519092909150565b61358a80620001975f395ff3fe608060405260043610610220575f3560e01c8063860e4ac61161011e578063c0368740116100a8578063ee7d72b41161006d578063ee7d72b4146106be578063f2fde38b146106dd578063f7800e69146106fc578063fc27ea8314610704578063fe71260714610719575f80fd5b8063c036874014610645578063cd7fada514610659578063d1ac71fb14610678578063e755ddd71461068d578063ed12e8ef146106ac575f80fd5b806391cab63e116100ee57806391cab63e146105a7578063a74d344e146105bb578063a7efe348146105e6578063aa0bf65b14610605578063ab30be8714610631575f80fd5b8063860e4ac6146105245780638a17221d146105455780638da5cb5b1461055a5780638e2db27d14610576575f80fd5b80635c3ac0ba116101aa57806378734a311161016f57806378734a311461046d5780637a0162721461049a5780637a4102b8146104c65780637eedcbc3146104e557806382b2e25714610510575f80fd5b80635c3ac0ba146103dd5780635fbf253e146103fc57806362a5b5ea1461041b5780636a326ab11461043a578063715018a614610459575f80fd5b806336e4463f116101f057806336e4463f1461032c57806338ce4fd81461034b5780633abdb63d1461036a5780634e2e15dc14610389578063513856c8146103a8575f80fd5b806313230fb2146102655780631ffbb064146102865780632de5aaf7146102c95780633013ce29146102f5575f80fd5b36610261576040805134815247602082015233917f3dcb1a97c343d0c00e1809c139e8b8348116c0c82c850e0c82d54e91fb36e8b8910160405180910390a2005b5f80fd5b348015610270575f80fd5b5061028461027f366004612dd8565b61072d565b005b348015610291575f80fd5b506102b46102a0366004612e03565b60086020525f908152604090205460ff1681565b60405190151581526020015b60405180910390f35b3480156102d4575f80fd5b506102e86102e3366004612dd8565b6107a4565b6040516102c09190612f4f565b348015610300575f80fd5b50600554610314906001600160a01b031681565b6040516001600160a01b0390911681526020016102c0565b348015610337575f80fd5b50610284610346366004612dd8565b61097e565b348015610356575f80fd5b50610284610365366004612dd8565b610aa0565b348015610375575f80fd5b50610284610384366004612dd8565b610c67565b348015610394575f80fd5b506102846103a3366004612f61565b610d60565b3480156103b3575f80fd5b506103c76103c2366004612dd8565b610e61565b6040516102c09a99989796959493929190612f8a565b3480156103e8575f80fd5b506102846103f7366004612dd8565b610f61565b348015610407575f80fd5b50610284610416366004612dd8565b611037565b348015610426575f80fd5b50610284610435366004612dd8565b611607565b348015610445575f80fd5b50610284610454366004612e03565b61180e565b348015610464575f80fd5b5061028461185f565b348015610478575f80fd5b5061048c610487366004612ffd565b611872565b6040519081526020016102c0565b3480156104a5575f80fd5b506104b96104b4366004612dd8565b611ba0565b6040516102c091906130cf565b3480156104d1575f80fd5b506102846104e0366004612dd8565b611c6b565b3480156104f0575f80fd5b5061048c6104ff366004612e03565b600a6020525f908152604090205481565b34801561051b575f80fd5b5061048c611cef565b34801561052f575f80fd5b50610538611d75565b6040516102c091906130dd565b348015610550575f80fd5b5061048c60025481565b348015610565575f80fd5b505f546001600160a01b0316610314565b348015610581575f80fd5b50610595610590366004612dd8565b611f01565b6040516102c09695949392919061313d565b3480156105b2575f80fd5b5060065461048c565b3480156105c6575f80fd5b5061048c6105d5366004612e03565b60076020525f908152604090205481565b3480156105f1575f80fd5b50610284610600366004612e03565b611f52565b348015610610575f80fd5b5061062461061f366004612dd8565b6120ed565b6040516102c09190613180565b34801561063c575f80fd5b5061048c603281565b348015610650575f80fd5b5061048c600a81565b348015610664575f80fd5b50610284610673366004612e03565b61225a565b348015610683575f80fd5b5061048c60045481565b348015610698575f80fd5b506102846106a7366004612dd8565b6122a6565b3480156106b7575f80fd5b504761048c565b3480156106c9575f80fd5b506102846106d8366004612dd8565b612585565b3480156106e8575f80fd5b506102846106f7366004612e03565b6125d3565b61028461260d565b34801561070f575f80fd5b5061048c60035481565b348015610724575f80fd5b5060095461048c565b610735612689565b600a81101561075f5760405162461bcd60e51b8152600401610756906131cd565b60405180910390fd5b600481905560035460408051918252602082018390527fc7f44c66d5272c4c427a79b701e44cf050932760038bf62e811ef6c2dcb739dc91015b60405180910390a150565b6107f860408051610140810182525f8082526020820181905291810182905260608101829052608081018290529060a082019081526020015f81526020015f81526020015f15158152602001606081525090565b60065482106108195760405162461bcd60e51b8152600401610756906131f9565b6006828154811061082c5761082c613220565b5f9182526020918290206040805161014081018252600990930290910180546001600160a01b0390811684526001820154948401949094526002810154918301919091526003810154606083015260048082015493841660808401529192909160a084019160ff600160a01b90910416908111156108ac576108ac612e25565b60048111156108bd576108bd612e25565b81526005820154602082015260068201546040820152600782015460ff16151560608201526008820180546080909201916108f790613234565b80601f016020809104026020016040519081016040528092919081815260200182805461092390613234565b801561096e5780601f106109455761010080835404028352916020019161096e565b820191905f5260205f20905b81548152906001019060200180831161095157829003601f168201915b5050505050815250509050919050565b610986612689565b60065481106109a75760405162461bcd60e51b8152600401610756906131f9565b5f600682815481106109bb576109bb613220565b5f918252602090912060099091020190506003600482810154600160a01b900460ff16908111156109ee576109ee612e25565b1480610a18575060048082810154600160a01b900460ff1690811115610a1657610a16612e25565b145b610a535760405162461bcd60e51b815260206004820152600c60248201526b43616e6e6f7420726574727960a01b6044820152606401610756565b600781015460ff16610a775760405162461bcd60e51b81526004016107569061326c565b5f816002015442610a8891906132aa565b600383018190559050610a9b83826126b5565b505050565b610aa8612689565b6006548110610ac95760405162461bcd60e51b8152600401610756906131f9565b5f60068281548110610add57610add613220565b5f918252602090912060099091020190506001600482810154600160a01b900460ff1690811115610b1057610b10612e25565b14610b535760405162461bcd60e51b81526020600482015260136024820152724e6f2070656e64696e67207363686564756c6560681b6044820152606401610756565b60048181015460405163cd7fada560e01b81526001600160a01b03909116918101829052309063cd7fada5906024015f604051808303815f87803b158015610b99575f80fd5b505af1925050508015610baa575060015b506001600160a01b0381165f908152600a6020526040902054600954811015610c1457600460098281548110610be257610be2613220565b5f9182526020909120600560069092020101805460ff19166001836004811115610c0e57610c0e612e25565b02179055505b6004830180546001600160a81b031916600160a21b1790556040516001600160a01b0383169085907f1b8cf3d0e01ebd7e78ed132930307c4b6cedb703dd521ed4910c4000515faf70905f90a350505050565b610c6f612689565b6006548110610c905760405162461bcd60e51b8152600401610756906131f9565b5f60068281548110610ca457610ca4613220565b5f9182526020909120600990910201600781015490915060ff16610cfc5760405162461bcd60e51b815260206004820152600f60248201526e105b1c9958591e481c995b5bdd9959608a1b6044820152606401610756565b60078101805460ff1990811690915581546001600160a01b039081165f90815260086020526040808220805490941690935583549251929091169184917f8f1a3744946a8eb046190ae493ca46bf975c8610e25f5ed3e41e3a525175372991a35050565b610d68612689565b6006548310610d895760405162461bcd60e51b8152600401610756906131f9565b5f60068481548110610d9d57610d9d613220565b5f9182526020909120600990910201600781015490915060ff16610dd35760405162461bcd60e51b81526004016107569061326c565b8215610de157600181018390555b8115610e1057600a821015610e085760405162461bcd60e51b8152600401610756906131cd565b600281018290555b837f5bfe4dba5e7ad66f0209e6d2a98fabea0857f9f1564838adb28dcda2ad8ed05982600101548360020154604051610e53929190918252602082015260400190565b60405180910390a250505050565b60068181548110610e70575f80fd5b5f9182526020909120600990910201805460018201546002830154600384015460048501546005860154600687015460078801546008890180546001600160a01b03998a169b5097999698959795851696600160a01b90950460ff908116969495939492169291610ee090613234565b80601f0160208091040260200160405190810160405280929190818152602001828054610f0c90613234565b8015610f575780601f10610f2e57610100808354040283529160200191610f57565b820191905f5260205f20905b815481529060010190602001808311610f3a57829003601f168201915b505050505090508a565b610f69612689565b6006548110610f8a5760405162461bcd60e51b8152600401610756906131f9565b5f60068281548110610f9e57610f9e613220565b5f9182526020909120600990910201600781015490915060ff16610fd45760405162461bcd60e51b81526004016107569061326c565b6001600482810154600160a01b900460ff1690811115610ff657610ff6612e25565b03610a775760405162461bcd60e51b8152602060048201526011602482015270105b1c9958591e481cd8da19591d5b1959607a1b6044820152606401610756565b61103f612a2b565b3330148061105657505f546001600160a01b031633145b6110935760405162461bcd60e51b815260206004820152600e60248201526d139bdd08185d5d1a1bdc9a5e995960921b6044820152606401610756565b60065481106110b45760405162461bcd60e51b8152600401610756906131f9565b5f600682815481106110c8576110c8613220565b5f9182526020909120600990910201600781015490915060ff16611151576004810180546003919060ff60a01b1916600160a01b830217905550815f80516020613535833981519152604051611143906020808252601190820152701059d95b9d0819195858dd1a5d985d1959607a1b604082015260600190565b60405180910390a2506115fb565b6005545f9081906001600160a01b03166112825747905082600101548110156112265760048301805460ff60a01b1916600360a01b17905560018301546040805191825260208201839052805186927ffcca3733d1a27d113bb2900bde06a7058d54a421b1353db012ca9844ef7787b392908290030190a2835f805160206135358339815191526040516112169060208082526019908201527f496e73756666696369656e7420484241522062616c616e636500000000000000604082015260600190565b60405180910390a25050506115fb565b825460018401546040516001600160a01b03909216915f81818185875af1925050503d805f8114611272576040519150601f19603f3d011682016040523d82523d5f602084013e611277565b606091505b50508092505061141a565b6005546040516370a0823160e01b81523060048201526001600160a01b03909116906370a0823190602401602060405180830381865afa1580156112c8573d5f803e3d5ffd5b505050506040513d601f19601f820116820180604052508101906112ec91906132bd565b9050826001015481101561139c5760048301805460ff60a01b1916600360a01b17905560018301546040805191825260208201839052805186927ffcca3733d1a27d113bb2900bde06a7058d54a421b1353db012ca9844ef7787b392908290030190a2835f80516020613535833981519152604051611216906020808252601a908201527f496e73756666696369656e7420746f6b656e2062616c616e6365000000000000604082015260600190565b6005548354600185015460405163a9059cbb60e01b81526001600160a01b039283166004820152602481019190915291169063a9059cbb906044016020604051808303815f875af11580156113f3573d5f803e3d5ffd5b505050506040513d601f19601f8201168201806040525081019061141791906132d4565b91505b8161147a576004830180546003919060ff60a01b1916600160a01b830217905550835f80516020613535833981519152604051611216906020808252600f908201526e151c985b9cd9995c8819985a5b1959608a1b604082015260600190565b6001836006015f82825461148e91906132aa565b909155505060018301546005840180545f906114ab9084906132aa565b9091555050600483018054600160a11b60ff60a01b198216179091556001600160a01b03161561156b5760048301546001600160a01b03165f908152600a60205260409020546009548110156115695760026009828154811061151057611510613220565b5f9182526020909120600560069092020101805460ff1916600183600481111561153c5761153c612e25565b0217905550426009828154811061155557611555613220565b905f5260205f209060060201600401819055505b505b8254600184015460068501546040516001600160a01b039093169287927fb365da638d49559818181a54a79a7b32cf848d6b298420f0b8cd009babc9a76d926115bc92918252602082015260400190565b60405180910390a3600783015460ff16156115f7575f8360020154426115e291906132aa565b6003850181905590506115f585826126b5565b505b5050505b61160460018055565b50565b6005546001600160a01b03166116565760405162461bcd60e51b8152602060048201526014602482015273139bc81c185e5b595b9d081d1bdad95b881cd95d60621b6044820152606401610756565b5f81116116935760405162461bcd60e51b815260206004820152600b60248201526a16995c9bc8185b5bdd5b9d60aa1b6044820152606401610756565b6005546040516323b872dd60e01b8152336004820152306024820152604481018390525f916001600160a01b0316906323b872dd906064016020604051808303815f875af11580156116e7573d5f803e3d5ffd5b505050506040513d601f19601f8201168201806040525081019061170b91906132d4565b9050806117525760405162461bcd60e51b8152602060048201526015602482015274151bdad95b881d1c985b9cd9995c8819985a5b1959605a1b6044820152606401610756565b6005546040516370a0823160e01b81523060048201525f916001600160a01b0316906370a0823190602401602060405180830381865afa158015611798573d5f803e3d5ffd5b505050506040513d601f19601f820116820180604052508101906117bc91906132bd565b60055460408051868152602081018490529293506001600160a01b039091169133917f2fe9925fcbf158a678a4e698791a920b0011d8f2ea8f50d63ab43311a399e28f910160405180910390a3505050565b611816612689565b600580546001600160a01b0319166001600160a01b0383169081179091556040517fcb0aeffe884eb88fb2a31a2f3e4bd1d2763bdee48ba93b28c6e87501228cf743905f90a250565b611867612689565b6118705f612a55565b565b5f61187b612689565b6001600160a01b0386166118c05760405162461bcd60e51b815260206004820152600c60248201526b5a65726f206164647265737360a01b6044820152606401610756565b6001600160a01b0386165f9081526008602052604090205460ff161561191f5760405162461bcd60e51b81526020600482015260146024820152734167656e7420616c72656164792065786973747360601b6044820152606401610756565b6006546032116119665760405162461bcd60e51b815260206004820152601260248201527113585e081859d95b9d1cc81c995858da195960721b6044820152606401610756565b5f80841161197657600354611978565b835b90505f80841161198a5760045461198c565b835b9050600a8110156119af5760405162461bcd60e51b8152600401610756906131cd565b6006805460408051610140810182526001600160a01b038c168152602081018690529081018490525f60608201819052608082018190529195509060a082019081526020015f81526020015f815260200160011515815260200189898080601f0160208091040260200160405190810160405280939291908181526020018383808284375f920182905250939094525050835460018082018655948252602091829020845160099092020180546001600160a01b03199081166001600160a01b039384161782559285015195810195909555604084015160028601556060840151600386015560808401516004808701805494851692909316918217835560a0860151959695945091926001600160a81b0319161790600160a01b908490811115611adc57611adc612e25565b021790555060c0820151600582015560e0820151600682015561010082015160078201805460ff19169115159190911790556101208201516008820190611b239082613354565b5050506001600160a01b0388165f818152600760209081526040808320879055600890915290819020805460ff191660011790555184907fc4d3732ea2ab8d2a709b3f2b985110d0e9f069f6c9a450294f369ff882b4d03e90611b8d908b908b9088908890613410565b60405180910390a3505095945050505050565b611ba8612d8f565b6009548210611bc95760405162461bcd60e51b8152600401610756906131f9565b60098281548110611bdc57611bdc613220565b5f9182526020918290206040805160c08101825260069093029091018054835260018101546001600160a01b031693830193909352600283015490820152600382015460608201526004808301546080830152600583015491929160a084019160ff90911690811115611c5157611c51612e25565b6004811115611c6257611c62612e25565b90525092915050565b611c73612689565b5f8111611cb05760405162461bcd60e51b815260206004820152600b60248201526a16995c9bc8185b5bdd5b9d60aa1b6044820152606401610756565b60038190556004546040805183815260208101929092527fc7f44c66d5272c4c427a79b701e44cf050932760038bf62e811ef6c2dcb739dc9101610799565b6005545f906001600160a01b0316611d0657505f90565b6005546040516370a0823160e01b81523060048201526001600160a01b03909116906370a0823190602401602060405180830381865afa158015611d4c573d5f803e3d5ffd5b505050506040513d601f19601f82011682018060405250810190611d7091906132bd565b905090565b60606006805480602002602001604051908101604052809291908181526020015f905b82821015611ef8575f84815260209081902060408051610140810182526009860290920180546001600160a01b0390811684526001820154948401949094526002810154918301919091526003810154606083015260048082015493841660808401529192909160a0840191600160a01b900460ff1690811115611e1e57611e1e612e25565b6004811115611e2f57611e2f612e25565b81526005820154602082015260068201546040820152600782015460ff1615156060820152600882018054608090920191611e6990613234565b80601f0160208091040260200160405190810160405280929190818152602001828054611e9590613234565b8015611ee05780601f10611eb757610100808354040283529160200191611ee0565b820191905f5260205f20905b815481529060010190602001808311611ec357829003601f168201915b50505050508152505081526020019060010190611d98565b50505050905090565b60098181548110611f10575f80fd5b5f9182526020909120600690910201805460018201546002830154600384015460048501546005909501549395506001600160a01b0390921693909260ff1686565b611f5a612689565b6040513060248201526001600160a01b03821660448201525f9081906101679060640160408051601f198184030181529181526020820180516001600160e01b031663248a35ef60e11b17905251611fb2919061344e565b5f604051808303815f865af19150503d805f8114611feb576040519150601f19603f3d011682016040523d82523d5f602084013e611ff0565b606091505b5091509150816120425760405162461bcd60e51b815260206004820152601960248201527f485453206173736f63696174652063616c6c206661696c6564000000000000006044820152606401610756565b5f81806020019051810190612057919061347f565b9050600781900b601614806120715750600781900b61011a145b6120b45760405162461bcd60e51b8152602060048201526014602482015273121514c8185cdcdbd8da585d194819985a5b195960621b6044820152606401610756565b6040516001600160a01b038516907fbbbf805ef99ca7d0b7d2cc769719f2a281c9b3331a3642efa75a712e3094a166905f90a250505050565b6009546060905f838211612101575f61210b565b61210b8483613498565b90505f6121188284613498565b90505f8167ffffffffffffffff811115612134576121346132f3565b60405190808252806020026020018201604052801561216d57816020015b61215a612d8f565b8152602001906001900390816121525790505b5090505f5b8281101561225057600961218682866132aa565b8154811061219657612196613220565b5f9182526020918290206040805160c08101825260069093029091018054835260018101546001600160a01b031693830193909352600283015490820152600382015460608201526004808301546080830152600583015491929160a084019160ff9091169081111561220b5761220b612e25565b600481111561221c5761221c612e25565b8152505082828151811061223257612232613220565b60200260200101819052508080612248906134ab565b915050612172565b5095945050505050565b3330146122995760405162461bcd60e51b815260206004820152600d60248201526c496e7465726e616c206f6e6c7960981b6044820152606401610756565b6122a281612aa4565b5050565b6122ae612689565b6005546001600160a01b031661239d57478111156123055760405162461bcd60e51b8152602060048201526014602482015273496e73756666696369656e742062616c616e636560601b6044820152606401610756565b5f80546040516001600160a01b039091169083908381818185875af1925050503d805f811461234f576040519150601f19603f3d011682016040523d82523d5f602084013e612354565b606091505b50509050806123975760405162461bcd60e51b815260206004820152600f60248201526e15da5d1a191c985dc819985a5b1959608a1b6044820152606401610756565b50612535565b6005546040516370a0823160e01b81523060048201525f916001600160a01b0316906370a0823190602401602060405180830381865afa1580156123e3573d5f803e3d5ffd5b505050506040513d601f19601f8201168201806040525081019061240791906132bd565b9050808211156124595760405162461bcd60e51b815260206004820152601a60248201527f496e73756666696369656e7420746f6b656e2062616c616e63650000000000006044820152606401610756565b6005545f906001600160a01b031663a9059cbb61247d5f546001600160a01b031690565b6040516001600160e01b031960e084901b1681526001600160a01b039091166004820152602481018690526044016020604051808303815f875af11580156124c7573d5f803e3d5ffd5b505050506040513d601f19601f820116820180604052508101906124eb91906132d4565b9050806125325760405162461bcd60e51b8152602060048201526015602482015274151bdad95b881dda5d1a191c985dc819985a5b1959605a1b6044820152606401610756565b50505b5f546001600160a01b03166001600160a01b03167f1b5775af7e7537be20684ccf94b9c6f4b180dabad653f5b57a234a9c6a3db40b8260405161257a91815260200190565b60405180910390a250565b61258d612689565b620f42408110156125ce5760405162461bcd60e51b815260206004820152600b60248201526a47617320746f6f206c6f7760a81b6044820152606401610756565b600255565b6125db612689565b6001600160a01b03811661260457604051631e4fbdf760e01b81525f6004820152602401610756565b61160481612a55565b5f341161264d5760405162461bcd60e51b815260206004820152600e60248201526d26bab9ba1039b2b73210242120a960911b6044820152606401610756565b6040805134815247602082015233917f3dcb1a97c343d0c00e1809c139e8b8348116c0c82c850e0c82d54e91fb36e8b8910160405180910390a2565b5f546001600160a01b031633146118705760405163118cdaa760e01b8152336004820152602401610756565b5f600683815481106126c9576126c9613220565b905f5260205f20906009020190505f6126e483600254612ba8565b905080612752576126f66001846132aa565b925061270483600254612ba8565b9050806127525760048201805460ff60a01b1916600360a01b17905560405183815284907fdad1775463f615e853a4d9ee46227741351e40998575887b820241bd3617448290602001610e53565b6040805160248082018790528251808303909101815260449091019091526020810180516001600160e01b0316632fdf929f60e11b1790526002545f9081906127a090309088908487612c6c565b91509150601660070b8260070b14612836576004850180546003919060ff60a01b1916600160a01b830217905550865f805160206135358339815191526040516128259060208082526021908201527f7363686564756c6543616c6c2072657475726e6564206e6f6e2d7375636365736040820152607360f81b606082015260800190565b60405180910390a250505050505050565b600485810180546001600160a01b038481166001600160a81b03199092168217600160a01b1790925560038801899055600980546040805160c0810182528d8152602081019485529081018c815242606083019081525f60808401818152600160a0860181815287820189559790925284517f6e1540171b6c0c960b71a7020d9f60077f6af931a8bbf590da0223dacf75c7af6006880290810191825598517f6e1540171b6c0c960b71a7020d9f60077f6af931a8bbf590da0223dacf75c7b08a0180546001600160a01b03191691909b161790995592517f6e1540171b6c0c960b71a7020d9f60077f6af931a8bbf590da0223dacf75c7b188015590517f6e1540171b6c0c960b71a7020d9f60077f6af931a8bbf590da0223dacf75c7b287015590517f6e1540171b6c0c960b71a7020d9f60077f6af931a8bbf590da0223dacf75c7b386015592517f6e1540171b6c0c960b71a7020d9f60077f6af931a8bbf590da0223dacf75c7b49094018054929691959493909260ff19169184908111156129c4576129c4612e25565b021790555050506001600160a01b0382165f818152600a6020526040908190208390555189907fbb051907c93213e5ff62ed7878fd8eb20c59968b150e38d9ab8f09cecf593a9790612a19908b815260200190565b60405180910390a35050505050505050565b600260015403612a4e57604051633ee5aeb560e01b815260040160405180910390fd5b6002600155565b5f80546001600160a01b038381166001600160a01b0319831681178455604051919092169283917f8be0079c531659141344cd1fd0a4f28419497f9722a3daafe3b4186f6b6457e09190a35050565b604080516001600160a01b03831660248083019190915282518083039091018152604490910182526020810180516001600160e01b0316631cb508e560e21b17905290515f918291829161016b91612afc919061344e565b5f604051808303815f865af19150503d805f8114612b35576040519150601f19603f3d011682016040523d82523d5f602084013e612b3a565b606091505b509150915081612b8c5760405162461bcd60e51b815260206004820152601a60248201527f4853533a2064656c6574655363686564756c65206661696c65640000000000006044820152606401610756565b80806020019051810190612ba0919061347f565b949350505050565b6040805160248101849052604480820184905282518083039091018152606490910182526020810180516001600160e01b031663dfb4a99960e01b17905290515f918291829161016b91612bfc919061344e565b5f60405180830381855afa9150503d805f8114612c34576040519150601f19603f3d011682016040523d82523d5f602084013e612c39565b606091505b509150915081612c4d575f92505050612c66565b80806020019051810190612c6191906132d4565b925050505b92915050565b5f805f8061016b6001600160a01b0316636f5bfde860e01b8a8a8a8a8a604051602401612c9d9594939291906134c3565b60408051601f198184030181529181526020820180516001600160e01b03166001600160e01b0319909416939093179092529051612cdb919061344e565b5f604051808303815f865af19150503d805f8114612d14576040519150601f19603f3d011682016040523d82523d5f602084013e612d19565b606091505b509150915081612d6b5760405162461bcd60e51b815260206004820152601860248201527f4853533a207363686564756c6543616c6c206661696c656400000000000000006044820152606401610756565b80806020019051810190612d7f91906134ff565b909a909950975050505050505050565b6040518060c001604052805f81526020015f6001600160a01b031681526020015f81526020015f81526020015f81526020015f6004811115612dd357612dd3612e25565b905290565b5f60208284031215612de8575f80fd5b5035919050565b6001600160a01b0381168114611604575f80fd5b5f60208284031215612e13575f80fd5b8135612e1e81612def565b9392505050565b634e487b7160e01b5f52602160045260245ffd5b60058110612e5557634e487b7160e01b5f52602160045260245ffd5b9052565b5f5b83811015612e73578181015183820152602001612e5b565b50505f910152565b5f8151808452612e92816020860160208601612e59565b601f01601f19169290920160200192915050565b80516001600160a01b031682525f6101406020830151602085015260408301516040850152606083015160608501526080830151612eef60808601826001600160a01b03169052565b5060a0830151612f0260a0860182612e39565b5060c083015160c085015260e083015160e085015261010080840151612f2b8287018215159052565b5050610120808401518282870152612f4583870182612e7b565b9695505050505050565b602081525f612e1e6020830184612ea6565b5f805f60608486031215612f73575f80fd5b505081359360208301359350604090920135919050565b6001600160a01b038b81168252602082018b9052604082018a905260608201899052871660808201525f610140612fc460a0840189612e39565b8660c08401528560e084015284151561010084015280610120840152612fec81840185612e7b565b9d9c50505050505050505050505050565b5f805f805f60808688031215613011575f80fd5b853561301c81612def565b9450602086013567ffffffffffffffff80821115613038575f80fd5b818801915088601f83011261304b575f80fd5b813581811115613059575f80fd5b89602082850101111561306a575f80fd5b9699602092909201985095966040810135965060600135945092505050565b8051825260018060a01b03602082015116602083015260408101516040830152606081015160608301526080810151608083015260a0810151610a9b60a0840182612e39565b60c08101612c668284613089565b5f602080830181845280855180835260408601915060408160051b87010192508387015f5b8281101561313057603f1988860301845261311e858351612ea6565b94509285019290850190600101613102565b5092979650505050505050565b8681526001600160a01b038616602082015260408101859052606081018490526080810183905260c0810161317560a0830184612e39565b979650505050505050565b602080825282518282018190525f9190848201906040850190845b818110156131c1576131ae838551613089565b9284019260c0929092019160010161319b565b50909695505050505050565b602080825260129082015271125b9d195c9d985b081d1bdbc81cda1bdc9d60721b604082015260600190565b6020808252600d908201526c092dcecc2d8d2c840d2dcc8caf609b1b604082015260600190565b634e487b7160e01b5f52603260045260245ffd5b600181811c9082168061324857607f821691505b60208210810361326657634e487b7160e01b5f52602260045260245ffd5b50919050565b60208082526010908201526f4167656e74206e6f742061637469766560801b604082015260600190565b634e487b7160e01b5f52601160045260245ffd5b80820180821115612c6657612c66613296565b5f602082840312156132cd575f80fd5b5051919050565b5f602082840312156132e4575f80fd5b81518015158114612e1e575f80fd5b634e487b7160e01b5f52604160045260245ffd5b601f821115610a9b575f81815260208120601f850160051c8101602086101561332d5750805b601f850160051c820191505b8181101561334c57828155600101613339565b505050505050565b815167ffffffffffffffff81111561336e5761336e6132f3565b6133828161337c8454613234565b84613307565b602080601f8311600181146133b5575f841561339e5750858301515b5f19600386901b1c1916600185901b17855561334c565b5f85815260208120601f198616915b828110156133e3578886015182559484019460019091019084016133c4565b508582101561340057878501515f19600388901b60f8161c191681555b5050505050600190811b01905550565b60608152836060820152838560808301375f608085830101525f6080601f19601f870116830101905083602083015282604083015295945050505050565b5f825161345f818460208701612e59565b9190910192915050565b8051600781900b811461347a575f80fd5b919050565b5f6020828403121561348f575f80fd5b612e1e82613469565b81810381811115612c6657612c66613296565b5f600182016134bc576134bc613296565b5060010190565b60018060a01b038616815284602082015283604082015267ffffffffffffffff8316606082015260a060808201525f61317560a0830184612e7b565b5f8060408385031215613510575f80fd5b61351983613469565b9150602083015161352981612def565b80915050925092905056fe8b312a4045319f1ef3ac69d41643264f6eb97e250838bba76a40ba37afc9f374a2646970667358221220ab56917cfcdcfb2eeb1394867746236659e5ab61933e536e539328e18ace833664736f6c63430008140033",
  "linkReferences": {},
  "deployedLinkReferences": {},
  "immutableReferences": {},
  "inputSourceName": "project/contracts/hedera/SPARKPayrollVault.sol",
  "buildInfoId": "solc-0_8_20-81a6597efafb38bcd59e17ad4a7af2c9b46ff44f"
}